S016000044656D6F315F4A6F79737469636B2E73726563A9
S11300000C9434000C9451000C9451000C94510045
S11300100C9451000C9451000C9451000C94510018
S11300200C9451000C9451000C9451000C94A101B7
S11300300C9451000C9451000C9451000C945100F8
S11300400C9451000C9451000C9451000C947D00BC
S11300500C9451000C9451000C9451000C945100D8
S11300600C9451000C94510011241FBECFEFD8E022
S1130070DEBFCDBF11E0A0E0B1E0ECE7FCE002C0E0
S113008005900D92A635B107D9F721E0A6E5B1E0B8
S113009001C01D92A835B207E1F70E94FC000C9440
S11300A03C060C940000181619068CF420E030E08D
S11300B06BE05AEF42E016BC65BD57BDA99BFECF6D
S11300C015BC45BB2F5F3F4F82179307A1F70895D7
S11300D0BC011816190664F008959AB19AB9215012
S11300E03109D9F74F5F5F4F6417750719F4089505
S11300F040E050E02DE931E0F0CF1F920F920FB6AF
S11301000F9211242F933F938F93EF93FF9380913A
S11301100001882359F08093C60008C0818181932F
S1130120E217F307D9F710921D0105C0E0E0F1E0F2
S11301302DE131E0F3CFFF91EF918F913F912F911A
S11301400F900FBE0F901F90189580E480937C0051
S1130150EAE7F0E080818268808308958770806494
S113016080937C00EAE7F0E0808180648083808172
S113017084FFFDCFEAE7F0E080818061808381E045
S113018090E00E9468008091780090917900089531
S1130190FF920F931F93CF93DF93FC01208130E0F4
S11301A0062E02C0359527950A94E2F724273527B1
S11301B020FF1AC08A01F62EEC0184E190E00E942F
S11301C05300288130E00F2C02C0359527950A94FE
S11301D0E2F72027312720FDF4CF84E190E00E944C
S11301E0530081E090E002C080E090E0DF91CF9185
S11301F01F910F91FF90089586E08093C20088E0DC
S113020090E09093C5008093C40088E28093C1007D
S11302108DE0809381008CEE9BE090938900809325
S1130220880082E080936F000E94A500789441E0EA
S113023050E062E070E089E290E00E94C800892BFF
S113024049F086E0EEE1F1E0A0E0B1E001900D922A
S11302508A95E1F741E050E063E070E089E290E0E4
S11302600E94C800892B49F086E0E4E2F1E0A0E0B6
S1130270B1E001900D928A95E1F741E050E064E02D
S113028070E089E290E00E94C800892B49F086E082
S1130290EAE2F1E0A0E0B1E001900D928A95E1F785
S11302A041E050E065E070E089E290E00E94C8001F
S11302B0892B49F086E0E0E3F1E0A0E0B1E00190B1
S11302C00D928A95E1F741E050E066E070E089E242
S11302D090E00E94C800892B49F086E0E6E3F1E053
S11302E0A0E0B1E001900D928A95E1F741E050E081
S11302F067E070E089E290E00E94C800892B49F031
S113030086E0ECE3F1E0A0E0B1E001900D928A9583
S1130310E1F741E050E060E070E083E290E00E94A9
S1130320C800892B49F086E0E2E4F1E0A0E0B1E006
S113033001900D928A95E1F788E290E00E945300C3
S113034076CF1F920F920FB60F9211242F933F93E3
S11303504F935F936F937F938F939F93AF93BF93C9
S1130360EF93FF938091560190915701892B21F1CE
S113037080E00E94AE00BC01990F880B990B0E948B
S1130380C6022AE037ED43E251E40E941C020E94B7
S11303908E027F936F9388E491E09F938F9380E024
S11303A091E09F938F930E9452030F900F900F90B0
S11303B00F900F900F9023C081E00E94AE00BC010B
S11303C0990F880B990B0E94C6022AE037ED43E28D
S11303D051E40E941C020E948E027F936F938FE46B
S11303E091E09F938F9380E091E09F938F930E947D
S11303F052030F900F900F900F900F900F90209139
S113040056013091570181E090E0821B930B909349
S1130410570180935601FF91EF91BF91AF919F9146
S11304208F917F916F915F914F913F912F910F9099
S11304300FBE0F901F9018950E9430020C94180361
S11304400E94110358F00E940A0340F029F45F3F10
S113045029F00C94010351110C944C030C940703E0
S11304600E94290368F39923B1F3552391F3951B53
S1130470550BBB27AA2762177307840738F09F5FC1
S11304805F4F220F331F441FAA1FA9F335D00E2E2E
S11304903AF0E0E832D091505040E695001CCAF79B
S11304A02BD0FE2F29D0660F771F881FBB1F26175E
S11304B037074807AB07B0E809F0BB0B802DBF0135
S11304C0FF2793585F4F3AF09E3F510578F00C9404
S11304D001030C944C035F3FE4F3983ED4F38695F8
S11304E077956795B795F7959F5FC9F7880F911D25
S11304F09695879597F90895E1E0660F771F881F11
S1130500BB1F621773078407BA0720F0621B730BC3
S1130510840BBA0BEE1F88F7E09508950E949502AC
S11305206894B1110C944C0308950E94310388F02F
S11305309F5798F0B92F9927B751B0F0E1F0660FA3
S1130540771F881F991F1AF0BA95C9F714C0B130E4
S113055091F00E944B03B1E008950C944B03672F74
S1130560782F8827B85F39F0B93FCCF38695779513
S11305706795B395D9F73EF49095809570956195FC
S11305807F4F8F4F9F4F0895E89409C097FB3EF427
S113059090958095709561957F4F8F4F9F4F9923CC
S11305A0A9F0F92F96E9BB279395F695879577954A
S11305B06795B795F111F8CFFAF4BB0F11F460FF0A
S11305C01BC06F5F7F4F8F4F9F4F16C0882311F062
S11305D096E911C0772321F09EE8872F762F05C076
S11305E0662371F096E8862F70E060E02AF09A9511
S11305F0660F771F881FDAF7880F9695879597F906
S1130600089597F99F6780E870E060E008959FEF90
S113061080EC089500240A94161617061806090695
S1130620089500240A941216130614060506089564
S1130630092E0394000C11F4882352F0BB0F40F4EC
S1130640BF2B11F460FF04C06F5F7F4F8F4F9F4F2C
S1130650089557FD9058440F551F59F05F3F71F0AE
S11306604795880F97FB991F61F09F3F79F0879515
S11306700895121613061406551FF2CF4695F1DF9E
S113068008C0161617061806991FF1CF869571052E
S1130690610508940895E894BB2766277727CB0162
S11306A097F90895AEE0B0E0E8E5F3E00C941306A2
S11306B00D891E8986E08C831A8309838FEF9FE757
S11306C09E838D83AE01475E5F4F6F89788DCE0127
S11306D001960E947403EF81F885E00FF11F1082E8
S11306E02E96E4E00C942F06ABE0B0E0EAE7F3E0EA
S11306F00C9405066C017B018A01FC0117821682A9
S1130700838181FFCCC1CE0101963C01F601938126
S1130710F70193FD859193FF81917F01882309F46B
S1130720BAC1853239F493FD859193FF81917F019C
S1130730853229F4B60190E00E946B05E7CF912C35
S1130740212C312CFFE1F315D8F08B3279F038F4F9
S1130750803279F08332A1F4232D20611DC08D32C3
S113076061F0803369F4232D216016C0832D8260EB
S1130770382EE32DE4603E2E2AC0F32DF8601DC010
S113078037FC2DC020ED280F2A3040F08E32B9F40A
S113079036FC81C1232D2064322E19C036FE06C0DA
S11307A08AE0989E200D1124922E11C0EAE02E9E1C
S11307B0200D1124222EF32DF0623F2E08C08C361A
S11307C021F4832D8068382E02C0883641F4F70165
S11307D093FD859193FF81917F018111B3CF982F70
S11307E09F7D9554933028F40C5F1F4F9FE39983AA
S11307F00DC0833631F0833771F0833509F059C069
S113080021C0F801808189830E5F1F4F882483945F
S1130810912C530113C02801F2E04F0E511CF80132
S1130820A080B18036FE03C0692D70E002C06FEF76
S11308307FEFC5010E9460054C018201F32DFF7713
S11308403F2E16C0280122E0420E511CF801A08060
S1130850B18036FE03C0692D70E002C06FEF7FEFF8
S1130860C5010E9455054C01F32DF0683F2E82010D
S113087033FC1BC0822D90E088169906B0F4B601B3
S113088080E290E00E946B052A94F4CFF50137FCD6
S1130890859137FE81915F01B60190E00E946B055E
S11308A021102A9421E0821A91088114910471F78D
S11308B0E8C0843611F0893641F5F80137FE07C0E7
S11308C060817181828193810C5F1F4F08C06081B8
S11308D07181072E000C880B990B0E5F1F4FF32DAF
S11308E0FF763F2E97FF09C090958095709561958E
S11308F07F4F8F4F9F4FF0683F2E2AE030E0A301D7
S11309000E94A705882E861845C0853731F4232D0B
S11309102F7EB22E2AE030E025C0932D997FB92E88
S11309208F36C1F018F4883579F0B5C0803719F0E6
S1130930883721F0B0C0E92FE061BE2EB4FE0DC0AF
S1130940FB2DF460BF2E09C034FE0AC0292F266097
S1130950B22E06C028E030E005C020E130E002C03D
S113096020E132E0F801B7FE07C060817181828125
S113097093810C5F1F4F06C06081718180E090E01D
S11309800E5F1F4FA3010E94A705882E8618FB2D1A
S1130990FF773F2E36FE0DC0232D2E7FA22E891405
S11309A058F434FE0BC032FC09C0832D8E7EA82E71
S11309B005C0B82CA32C03C0B82C01C0B92CA4FECC
S11309C00FC0FE01E80DF11D8081803321F49A2DC2
S11309D0997EA92E09C0A2FE06C0B394B39404C0A4
S11309E08A2D867809F0B394A3FC11C0A0FE06C03A
S11309F0B21488F4280C922C9B180EC0B21460F424
S1130A00B60180E290E00E946B05B394F7CFB21474
S1130A1018F42B1802C0982C212CA4FE10C0B60187
S1130A2080E390E00E946B05A2FE17C0A1FC03C006
S1130A3088E790E002C088E590E0B6010CC08A2DFA
S1130A40867859F0A1FE02C08BE201C080E2A7FCC7
S1130A508DE2B60190E00E946B05891438F4B6016A
S1130A6080E390E00E946B059A94F7CF8A94F30197
S1130A70E80DF11D8081B60190E00E946B058110A4
S1130A80F5CF222009F442CEB60180E290E00E9424
S1130A906B052A94F6CFF6018681978102C08FEF09
S1130AA09FEF2B96E2E10C942106FC010590615026
S1130AB070400110D8F7809590958E0F9F1F089570
S1130AC0FC016150704001900110D8F78095909519
S1130AD08E0F9F1F08950F931F93CF93DF93FB01F6
S1130AE0238121FD03C08FEF9FEF2CC022FF16C08E
S1130AF046815781248135814217530744F4A081EC
S1130B00B1819D012F5F3F4F318320838C932681D8
S1130B1037812F5F3F4F3783268314C08B01EC014D
S1130B20FB010084F185E02D0995892BE1F6D801BC
S1130B3016968D919C911797019617969C938E9378
S1130B401697CE01DF91CF911F910F910895FA016D
S1130B50AA27283051F1203181F1E8946F936E7FF8
S1130B606E5F7F4F8F4F9F4FAF4FB1E03ED0B4E0E9
S1130B703CD0670F781F891F9A1FA11D680F791F2A
S1130B808A1F911DA11D6A0F711D811D911DA11D3B
S1130B9020D009F468943F912AE0269F112430194B
S1130BA0305D3193DEF6CF010895462F4770405DE6
S1130BB04193B3E00FD0C9F7F6CF462F4F70405D95
S1130BC04A3318F0495D31FD4052419302D0A9F7F0
S1130BD0EACFB4E0A6959795879577956795BA95EA
S1130BE0C9F700976105710508959B01AC010A2EB0
S1130BF006945795479537952795BA95C9F7620F87
S1130C00731F841F951FA01D08952F923F924F922A
S1130C105F926F927F928F929F92AF92BF92CF9288
S1130C20DF92EF92FF920F931F93CF93DF93CDB791
S1130C30DEB7CA1BDB0B0FB6F894DEBF0FBECDBF09
S1130C4009942A88398848885F846E847D848C84DA
S1130C509B84AA84B984C884DF80EE80FD800C81E3
S1130C601B81AA81B981CE0FD11D0FB6F894DEBFC6
S10F0C700FBECDBFED010895F894FFCF36
S1130C7C57652061726520726561647921000000FA
S1130C8C00000000000000000000000000002F6BBA
S1130C9C657941002F6B657942002F6B65794300B0
S1130CAC2F6B657944002F6B657945002F6B657943
S1130CBC46002F6B65794B002F5825303264002F7A
S1090CCC592530326400DA
S9030000FC
