S016000044656D6F315F4A6F79737469636B2E73726563A9
S11300000C9434000C9451000C9451000C94510045
S11300100C9451000C9451000C9451000C94510018
S11300200C9451000C9451000C9451000C94A101B7
S11300300C9451000C9451000C9451000C945100F8
S11300400C9451000C9451000C9451000C947D00BC
S11300500C9451000C9451000C9451000C945100D8
S11300600C9451000C94510011241FBECFEFD8E022
S1130070DEBFCDBF11E0A0E0B1E0E0E2F7E002C0F6
S113008005900D92AC34B107D9F721E0ACE4B1E0AE
S113009001C01D92AE34B207E1F70E94FC000C943B
S11300A08E030C940000181619068CF420E030E03E
S11300B06BE05AEF42E016BC65BD57BDA99BFECF6D
S11300C015BC45BB2F5F3F4F82179307A1F70895D7
S11300D0BC011816190664F008959AB19AB9215012
S11300E03109D9F74F5F5F4F6417750719F4089505
S11300F040E050E02DE931E0F0CF1F920F920FB6AF
S11301000F9211242F933F938F93EF93FF9380913A
S11301100401882359F08093C60008C0818181932B
S1130120E217F307D9F71092210105C0E4E0F1E0EA
S113013021E231E0F3CFFF91EF918F913F912F9125
S11301400F900FBE0F901F90189580E480937C0051
S1130150EAE7F0E080818268808308958770806494
S113016080937C00EAE7F0E0808180648083808172
S113017084FFFDCFEAE7F0E080818061808381E045
S113018090E00E9468008091780090917900089531
S1130190FF920F931F93CF93DF93FC01208130E0F4
S11301A0062E02C0359527950A94E2F724273527B1
S11301B020FF1AC08A01F62EEC0184E190E00E942F
S11301C05300288130E00F2C02C0359527950A94FE
S11301D0E2F72027312720FDF4CF84E190E00E944C
S11301E0530081E090E002C080E090E0DF91CF9185
S11301F01F910F91FF90089586E08093C20088E0DC
S113020090E09093C5008093C40088E28093C1007D
S11302108DE0809381008CEE9BE090938900809325
S1130220880082E080936F000E94A500789441E0EA
S113023050E062E070E089E290E00E94C800892BFF
S113024049F086E0E2E2F1E0A4E0B1E001900D9231
S11302508A95E1F741E050E063E070E089E290E0E4
S11302600E94C800892B49F086E0E8E2F1E0A4E0AE
S1130270B1E001900D928A95E1F741E050E064E02D
S113028070E089E290E00E94C800892B49F086E082
S1130290EEE2F1E0A4E0B1E001900D928A95E1F77D
S11302A041E050E065E070E089E290E00E94C8001F
S11302B0892B49F086E0E4E3F1E0A4E0B1E00190A9
S11302C00D928A95E1F741E050E066E070E089E242
S11302D090E00E94C800892B49F086E0EAE3F1E04F
S11302E0A4E0B1E001900D928A95E1F741E050E07D
S11302F067E070E089E290E00E94C800892B49F031
S113030086E0E0E4F1E0A4E0B1E001900D928A958A
S1130310E1F741E050E060E070E083E290E00E94A9
S1130320C800892B49F086E0E6E4F1E0A4E0B1E0FE
S113033001900D928A95E1F788E290E00E945300C3
S113034076CF1F920F920FB60F9211242F933F93E3
S11303504F935F936F937F938F939F93AF93BF93C9
S1130360EF93FF9380914C0190914D01892BB1F053
S113037080E00E94AE00BC01990F880B990B0E948B
S113038002032AE037ED43E251E40E9458020E943E
S1130390CA02709303016093020164C081E00E9469
S11303A0AE00BC01990F880B990B0E9402032AE04E
S11303B037ED43E251E40E9458020E94CA0270934E
S11303C00101609300014EC0E4E0F1E08FE29CE49F
S11303D09183808312825BC0823491058CF02091DA
S11303E0000130910101255131092B33310540F4CD
S11303F0E4E0F1E08FE292E591838083128247C0CA
S11304002091000130910101223431055CF04597BF
S1130410CB97B0F4E4E0F1E08FE296E4918380833B
S1130420128235C0233231055CF44597CB9740F4F2
S1130430E4E0F1E08FE292E491838083128227C0AA
S1130440E4E0F1E08FE293E59183808312821FC0A0
S11304502091000130910101255131092B333105DF
S113046078F6B2CF20914C0130914D0181E090E0BB
S1130470821B930B90934D0180934C018091020158
S113048090910301833291050CF0A6CFE1CFFF9147
S1130490EF91BF91AF919F918F917F916F915F91F8
S11304A04F913F912F910F900FBE0F901F90189571
S11304B00E946C020C9454030E944D0358F00E9455
S11304C0460340F029F45F3F29F00C943D03511199
S11304D00C9488030C9443030E94650368F39923E6
S11304E0B1F3552391F3951B550BBB27AA2762172C
S11304F07307840738F09F5F5F4F220F331F441F39
S1130500AA1FA9F335D00E2E3AF0E0E832D091506C
S11305105040E695001CCAF72BD0FE2F29D0660F59
S1130520771F881FBB1F261737074807AB07B0E89C
S113053009F0BB0B802DBF01FF2793585F4F3AF0A2
S11305409E3F510578F00C943D030C9488035F3F63
S1130550E4F3983ED4F3869577956795B795F79528
S11305609F5FC9F7880F911D9695879597F9089510
S1130570E1E0660F771F881FBB1F621773078407AC
S1130580BA0720F0621B730B840BBA0BEE1F88F7BB
S1130590E09508950E94D1026894B1110C948803E7
S11305A008950E946D0388F09F5798F0B92F9927FA
S11305B0B751B0F0E1F0660F771F881F991F1AF04A
S11305C0BA95C9F714C0B13091F00E948703B1E025
S11305D008950C948703672F782F8827B85F39F024
S11305E0B93FCCF3869577956795B395D9F73EF4E3
S11305F090958095709561957F4F8F4F9F4F08958B
S1130600E89409C097FB3EF49095809570956195A8
S11306107F4F8F4F9F4F9923A9F0F92F96E9BB275E
S11306209395F695879577956795B795F111F8CFDA
S1130630FAF4BB0F11F460FF1BC06F5F7F4F8F4F45
S11306409F4F16C0882311F096E911C0772321F03B
S11306509EE8872F762F05C0662371F096E8862FD3
S113066070E060E02AF09A95660F771F881FDAF72A
S1130670880F9695879597F9089597F99F6780E86D
S113068070E060E008959FEF80EC089500240A94E0
S11306901616170618060906089500240A94121659
S11306A01306140605060895092E0394000C11F48C
S11306B0882352F0BB0F40F4BF2B11F460FF04C039
S11306C06F5F7F4F8F4F9F4F089557FD9058440F92
S11306D0551F59F05F3F71F04795880F97FB991F9D
S11306E061F09F3F79F0879508951216130614065A
S11306F0551FF2CF4695F1DF08C0161617061806E7
S1130700991FF1CF86957105610508940895E894C1
S1130710BB2766277727CB0197F90895F894FFCF75
S11307203200320057652061726520726561647918
S11307302100000000000000000000000000000094
S113074000002F6B657941002F6B657942002F6B98
S1130750657943002F6B657944002F6B65794500FB
S10F07602F6B657946002F6B65794B0008
S9030000FC
